:1000000084C09EC09DC09CC09BC09AC099C098C02F
:1000100097C096C095C094C093C092C092C090C043
:100020008FC08EC08DC0A2C3C6C2B4C3D2C3F6C334
:1000300010C43BC44EC45BC4CFC5D1C5D4C5D7C55D
:10004000DAC5DDC5E1C5B0C7ABC7A6C7A5C7A0C7A0
:10005000A7C79EC7D7C7D2C7CDC7CCC7C7C7CEC74C
:10006000C5C7007800700068006000580050004864
:100070000040003800300028002000180010000860
:100080000000000040008000C0000001400180012D
:10009000C001000240028002C0020003400380034E
:1000A000E003007C006C00580044003000140000A5
:1000B000A00080018001A000001400300014A00006
:1000C00080012002C0026003E003006C00440030A5
:1000D0000000110019001900110000008001200229
:1000E000270220022002C002C002200220022002B9
:1000F000270220028001EC00110016001100EC0024
:1001000080012002C0026003E00311241FBECFE57E
:10011000D2E0DEBFCDBF10E0A0E6B0E0EEE9F2E154
:1001200002C005900D92A63AB107D9F720E0A6EAE1
:10013000B0E001C01D92AE3EB207E1F759D1ADC8A3
:100140005FCF1F920F920FB60F9211248F92AF9232
:10015000BF92CF92EF92FF920F932F933F934F93C3
:100160005F936F937F938F939F93AF93BF93EF931F
:10017000FF936091B60082E0882E98E3A92EB12CFF
:10018000C12C28E3E22EF12C01E028E330E040917D
:10019000AD0089ED90E0C0D56091B60038E0832EC7
:1001A00004E028E330E04091AD0087EC90E0B4D566
:1001B0008091AC008F5F843018F48093AC0072C0E3
:1001C0001092AC008091A6009091A700A091A80089
:1001D000B091A9000196A11DB11D8093A600909336
:1001E000A700A093A800B093A9008091B7009091B8
:1001F000B800A091B900B091BA00892B8A2B8B2B43
:1002000099F08091B7009091B800A091B900B09199
:10021000BA000197A109B1098093B7009093B80083
:10022000A093B900B093BA008091C3009091C4002C
:10023000A091C500B091C600892B8A2B8B2B99F019
:100240008091C3009091C400A091C500B091C600F8
:100250000197A109B1098093C3009093C400A093B2
:10026000C500B093C6008091D1009091D200A091BA
:10027000D300B091D400892B8A2B8B2B99F08091DD
:10028000D1009091D200A091D300B091D4000197F9
:10029000A109B1098093D1009093D200A093D3001B
:1002A000B093D4008091AD008F5F8F7119F080936F
:1002B000AD001FC01092AD008091AB008F5F8093A6
:1002C000AB008F3540F09091AA0081E089278093A0
:1002D000AA001092AB004091B6006091AA0089ED8F
:1002E00090E075D54091B6006091AA0087EC90E04F
:1002F0006ED5FF91EF91BF91AF919F918F917F91BB
:100300006F915F914F913F912F910F91FF90EF90DF
:10031000CF90BF90AF908F900F900FBE0F901F9017
:1003200018952FB7F8946091A6007091A70080915E
:10033000A8009091A9002FBF089519BE81E085BB48
:1003400082E083BF8AEF83BB80E189BF089514BE3A
:10035000A8958EE081BDA8958FE08BBB90E89ABBF5
:1003600090E798BB87BBE9DFFBD289ED90E0C4D46E
:1003700087EC90E0C1D464E070E089ED90E0C8D4EF
:1003800064E070E087EC90E0C3D47894A895109274
:10039000C3001092C4001092C5001092C6001092C3
:1003A000BF001092C0001092C1001092C2001092C3
:1003B000B7001092B8001092B9001092BA001092D3
:1003C000D5001092D6001092D7001092D80010924B
:1003D000D1001092D2001092D3001092D40010924B
:1003E000BB001092BC001092BD001092BE00089598
:1003F000AEDFBFD28093B600A89586E090E0D6D35A
:100400005CD3BCD22FEF81EE94E02150804090402D
:10041000E1F700C00000A89561E070E089ED90E090
:1004200077D44BD3ABD2AFEFB2E527E0A150B040C9
:100430002040E1F700C00000A89564E070E089ED7D
:1004400090E066D43AD39AD28FEF92E5A7E081503C
:100450009040A040E1F700C00000A89561E070E086
:1004600087EC90E055D429D389D2BFEF22E587E00D
:10047000B15020408040E1F700C00000A89564E042
:1004800070E087EC90E044D418D378D29FEFA2E5D7
:10049000B7E09150A040B040E1F700C00000A8953F
:1004A00080E090E083D32FEF81EE94E021508040F4
:1004B0009040E1F700C00000A89581E090E076D37D
:1004C000AFEFB1EE24E0A150B0402040E1F700C012
:1004D0000000A89582E090E069D38FEF91EEA4E050
:1004E00081509040A040E1F700C00000A89583E053
:1004F00090E05CD3BFEF21EE84E0B150204080401B
:10050000E1F700C00000A89584E090E04FD39FEF92
:10051000A1EEB4E09150A040B040E1F700C000006F
:10052000A89585E090E042D32FEF81EE94E0215032
:1005300080409040E1F700C00000A89586E090E080
:1005400035D3ACD2D82E8CD3FF24F39401E010E045
:10055000C3E0D0E0A895B1D211D20BD2E82EAAD236
:10056000811182E08E298093B6009ED290E00196A0
:100570006FE070E08AD5092E000CAA0BBB0B8093AC
:10058000BF009093C000A093C100B093C2008093BD
:10059000D5009093D600A093D700B093D800A8952B
:1005A000C0DE4B015C010930110508F0A6C1F8015D
:1005B000ED5EFF4F099486E090E0F8D26FD2382EBE
:1005C000D81679F080E090E0F1D2AFE7B8E321E00F
:1005D000A150B0402040E1F700C0000086E090E06C
:1005E000E5D280E0D0D2882369F08091B700909165
:1005F000B800A091B900B091BA00892B8A2B8B2B3F
:1006000009F49CC181E0BFD2882369F08091B700D2
:100610009091B800A091B900B091BA00892B8A2BB3
:100620008B2B09F48EC1C330D10509F47AC1FF20A8
:1006300011F077DE0DD635D2082F39D2882309F490
:1006400067C00031C0F5802F90E0FC01EA56FF4FF3
:100650008080912CA12CB12CFC01EE0FFF1FEA58D9
:10066000FF4FC080D180E12CF12CFC01EA59FF4FF3
:10067000808190E08130910559F49DD56C327343AF
:1006800083439347F0F481E090E0A0E0B0E049C0FC
:100690008230910539F48FD5643979498949994572
:1006A00090F30FC0039769F486D561157105810534
:1006B000904248F306C0C12CD12C7601812C912C9C
:1006C000540179D52B013C01D701C6010196A11D2A
:1006D000B11D9C01AD01281939094A095B096FEF69
:1006E0007FEF8FEF9FE7FBD42F5F3F4F4F4F5F4F61
:1006F000C301B201F4D4820E931EA41EB51E8092D3
:10070000BB009092BC00A092BD00B092BE0011C090
:10071000802F90E065E070E0B8D4092E000CAA0BA1
:10072000BB0B8093BB009093BC00A093BD00B09323
:10073000BE000FB7F89428EE33E040E050E060913F
:10074000BB007091BC008091BD009091BE00AED402
:100750006093D1007093D2008093D3009093D40023
:100760000FBFD32CF12C00E010E0DCC081E090E062
:100770001DD22FB7F8948091D1009091D200A09112
:10078000D300B091D4002FBF892B8A2B8B2B09F477
:10079000DBC0C8C02AEF30E040E050E0A0D4672BB7
:1007A000682B692B89F4C501B40124EF31E040E0E6
:1007B00050E095D4672B682B692B19F481E090E009
:1007C00002C086E090E0F2D18C2F33D28111C5C0F7
:1007D000A9C082E090E0EAD1E6D18111B8C08C2FA7
:1007E000D2D18111BAC01FB7F89428EE33E040E0AF
:1007F00050E06091BF007091C0008091C100909165
:10080000C20054D46093C3007093C4008093C500A9
:100810009093C6001FBF04E010E073C085E090E035
:10082000C5D18FB7F8948090C3009090C400A09079
:10083000C500B090C6008FBFB6D1811188C08C2F83
:10084000A2D181118AC089288A288B2809F482C004
:1008500058C080E090E0AAD1A6D181111BC01FB77B
:10086000F89428EE33E040E050E06091D5007091BC
:10087000D6008091D7009091D80018D46093B7002B
:100880007093B8008093B9009093BA001FBF06E040
:1008900010E048C081E0209709F080E074D18823FF
:1008A00009F440C007E010E03DC083E090E07ED155
:1008B0002FB7F8948091B7009091B800A091B9003B
:1008C000B091BA002FBF892B8A2B8B2B09F442C021
:1008D00029C084E090E06AD181E0209709F080E0AF
:1008E00052D181111FC05FD181111CC033C0B8D15A
:1008F00001E010E0C3E0D0E015C0C8010397029703
:1009000088F4209719F461E070E00EC0C130D10581
:1009100099F464E070E089ED90E0FAD161E070E074
:1009200008C0D32C64E070E089ED90E0F1D164E080
:1009300070E087EC90E0ECD1A8950CCEC0E0D0E060
:1009400076CEC1E0D0E073CE02E010E0EBCF05E060
:1009500010E0E8CF08E010E0E5CF03E010E0D1CFF1
:1009600083E287B987E886B913B881B1806381B91A
:10097000089589B386FB882780F90895CF92DF9286
:10098000EF92FF920F931F93CCDC0091B200109175
:10099000B3002091B4003091B5006B017C01C01A06
:1009A000D10AE20AF30A970186010B3011052105ED
:1009B000310508F46CC06093B2007093B30080936B
:1009C000B4009093B50029B32095422F4F70A8959D
:1009D0003A9887B1836087B9369A3699FECF95B138
:1009E000953D40F481E0963930F4943708F080E08A
:1009F00051E002C080E050E0A8953A9A97B19C7F00
:100A000097B9369A3699FECF95B1953D30F496391F
:100A100030F4943730F493E005C090E003C092E0E6
:100A200001C091E0292F30E096E0220F331F9A9504
:100A3000E1F7811102C090E001C090E2511102C0C3
:100A400080E001C080E1242B292B63EE70E0822B33
:100A50000AD183EE90E01DD18295869586958370AC
:100A60008093E70083EE90E014D185FB882780F91E
:100A70008093EC0083EE90E00CD18295817080939E
:100A8000EB0083EE90E005D18F708093E6001F911C
:100A90000F91FF90EF90DF90CF90089583EE90E05C
:100AA000F8C08091E60008958091E7000895809154
:100AB000EB0008958091EC000895CF92DF92EF92C1
:100AC000FF920F931F932DDC0091AE001091AF00A9
:100AD0002091B0003091B1006B017C01C01AD10AA5
:100AE000E20AF30A970186010B3011052105310551
:100AF00048F16093AE007093AF008093B000909384
:100B0000B10086B336B396B3829581703072232FCD
:100B100030E044E0359527954A95E1F7822B9074B3
:100B2000292F30E054E0359527955A95E1F7822B2F
:100B300068EE70E080951F910F91FF90EF90DF902D
:100B4000CF9091C01F910F91FF90EF90DF90CF90C9
:100B500008958130910581F040F0029791F488EE7C
:100B600090E097D086958170089588EE90E091D0BE
:100B700082FB882780F9089588EE90E08AD0817002
:100B8000089580E00895882329F0813051F481E0B0
:100B900090E0DFCF88EE90E07CD082FB882780F960
:100BA000089580E0089582E090E0D3CF0F931F93E3
:100BB000CF93DF9300D01F92CDB7DEB720916000B6
:100BC000309161002817390761F187309105F8F4F9
:100BD000FC01E45EFF4F099420E42A8316C020E460
:100BE0002A8328E102C01A8220E429830FC01A82D6
:100BF000198220E407C020E42A83198203C020E47C
:100C00002A8329832B8303C01A8219821B828C01B9
:100C100061E070E0CE0101966DD010936100009309
:100C200060000F900F900F90DF91CF911F910F9167
:100C30000895CF939091ED0097FF02C080E00EC021
:100C4000C82FB1DF8111FACF81E090E001C0880F99
:100C5000CA95EAF780688093ED0081E0CF9108950E
:100C60001092ED000895FB0142818427218130819B
:100C7000322738233083209528232183982F90957D
:100C8000932B922B892F809548274283409584236C
:100C90000895FC01828108952AB3242B2ABB2BB32B
:100CA000342F309523233BB3432B3FB7F894FC01FB
:100CB000680F791FABE3B0E0E617F70761F08191A9
:100CC00098E04C9387FF2C93880F07F408F42C933B
:100CD0009A95B9F7F1CF3FBF08959B01220F331FBB
:100CE000620F731FD9DF87E592E00197F1F700C02B
:100CF0000000089540E8F1CFFC01158214821382B0
:100D0000128211821082168217821086118608952F
:100D1000FC017583648308958F92AF92BF92CF9246
:100D2000EF92FF920F93CF93DF93CDB7DEB7D7014A
:100D30006095617051E0FC017781471708F050E041
:100D4000F901651721F050810095052302C05081FB
:100D5000052B008321E0FC013085431708F020E0DB
:100D6000621721F02C91C094C22202C02C91C22A99
:100D7000CC9221E0FC018185481708F020E0F501C4
:100D80008081621719F08094882201C0882A8082AD
:100D9000DF91CF910F91FF90EF90CF90BF90AF90E8
:100DA0008F9008958B7F019731F46250710981E033
:100DB0006230710508F080E008950297029728F4E8
:100DC0006B7F81E06130710509F080E00895CF927A
:100DD000DF92EF92FF920F931F93CF93DF93DC018B
:100DE00014968D919C9115979C01255031092230C4
:100DF000310518F08330910521F4611102C080E0C3
:100E000090E00D911C91119712962D913C911397A2
:100E10000217130739F416961C92169713969C9393
:100E20008E9312971296ED90FC9013970E151F0556
:100E300009F4FDC01696DC90169741FF86C0011597
:100E4000110509F482C0E114F10409F47EC0ED013A
:100E5000B701C801A7DFC82E811105C0B701C801BD
:100E6000ACDF882309F1ED2DF0E0EE0FFF1FE65314
:100E7000FF4F859194919C01B5E036952795BA95E1
:100E8000E1F72F71969596959F718F718F83CC2086
:100E900019F09987288702C02987988781E08D0DEE
:100EA000803208F04EC04BC0ED2DF0E0EE0FFF1F7A
:100EB000EE55FF4F25913491C901E5E09695879550
:100EC000EA95E1F78F71932F969596959F71198604
:100ED00018861F820430110538F40230110568F4B9
:100EE0000130110561F00CC00530110541F018F01A
:100EF0000630110529F49F8303C0988701C09987A4
:100F000094E0E916F10448F492E0E916F10480F463
:100F100091E0E916F10471F00EC095E0E916F104D4
:100F200049F020F096E0E916F10429F48F8303C01C
:100F3000888701C0898781E08D0D843110F48E830C
:100F40009BC01E82F982E88297C0ED2DF0E0EE0F83
:100F5000FF1FEE59FF4F25913491C90165E0969529
:100F600087956A95E1F78F71232F269526952F7126
:100F700019961C92199718961C92189717961C92FE
:100F800017970730110550F5F801ED5DFF4F0994F3
:100F900017962C93179722C018962C9318971EC05B
:100FA00019962C9319971AC0811118C031E03D0D84
:100FB000E32FF0E0EE0FFF1FEE59FF4F8591949164
:100FC00045E0969587954A95E1F78F7121F4303287
:100FD00010F4D32EEBCF1696DC92169797E0E91615
:100FE000F104B0F4F701E65DFF4F099417968C9376
:100FF00017970EC018968C9318970AC019968C9361
:10100000199706C0211104C080E216968C9316979A
:1010100016968C9116978F5F803218F416968C93E3
:101020002BC016961C921697ED92FC9225C019962D
:101030001C92199718961C92189717961C9217973E
:101040000430110538F40230110578F4013011052F
:1010500081F012C00530110561F018F0063011055D
:1010600059F48FE117968C9307C08FE118968C93F3
:1010700003C08FE119968C93DF91CF911F910F914F
:10108000FF90EF90DF90CF9008950024552704C083
:10109000080E591F880F991F009729F076956795BC
:1010A000B8F37105B9F7802D952F0895EE27FF2726
:1010B000AA27BB2708C0A20FB31FE41FF51F220FEA
:1010C000331F441F551F969587957795679598F31D
:1010D0007040A9F7009799F7BD01CF010895A1E2EB
:1010E0001A2EAA1BBB1BFD010DC0AA1FBB1FEE1FA2
:1010F000FF1FA217B307E407F50720F0A21BB30BED
:10110000E40BF50B661F771F881F991F1A9469F768
:1011100060957095809590959B01AC01BD01CF01C4
:1011200008958F929F92AF92BF92CF92DF92EF92EB
:10113000FF92CF93DF93EC01688179818A819B8153
:10114000611571058105910521F464E279ED8BE566
:1011500097E02DE133EF41E050E083D049015A019F
:1011600027EA31E440E050E0A1DF6B017C012CEE86
:1011700034EF4FEF5FEFC501B40198DFDC01CB0125
:101180008C0D9D1DAE1DBF1DB7FF03C00197A109AA
:10119000B04888839983AA83BB83BC01CD019F7724
:1011A000DF91CF91FF90EF90DF90CF90BF90AF9005
:1011B0009F908F9008958F929F92AF92BF92CF92FF
:1011C000DF92EF92FF9260916200709163008091D4
:1011D000640090916500611571058105910521F408
:1011E00064E279ED8BE597E02DE133EF41E050E0EB
:1011F00038D049015A0127EA31E440E050E056DF97
:101200006B017C012CEE34EF4FEF5FEFC501B401B1
:101210004DDFDC01CB018C0D9D1DAE1DBF1DB7FF49
:1012200003C00197A109B0488093620090936300C6
:10123000A0936400B0936500BC01CD019F77FF903F
:10124000EF90DF90CF90BF90AF909F908F900895D8
:1012500060936200709363008093640090936500D4
:101260000895052E97FB16F400940FD057FD05D076
:1012700036DF07FC02D046F408C050954095309503
:1012800021953F4F4F4F5F4F0895909580957095F2
:0E12900061957F4F8F4F9F4F0895F894FFCFC9
:10129E00070001000000000000000102030102032C
:1012AE000102030102030A0014001E003C001E008E
:1012BE001E001E003C003C003C00780078007800C8
:1012CE002C012C012C0100050F1E0F0F0F1E1E1ED0
:0612DE003C3C3CB4B4B43A
:00000001FF
